S00B0000636E632E73726563E5
S11300001AC034C033C0EAC131C030C0D5C12EC01B
S11300102DC0F2C02BC02AC029C028C027C026C0CA
S113002025C024C023C0FFC013C127C13BC14FC199
S113003063C177C18BC111241FBECFE5D4E0DEBFFD
S1130040CDBF10E0A0E6B0E0E4EDF8E002C005901A
S11300500D92A637B107D9F720E0A6E7B0E001C0BA
S11300601D92AE38B207E1F702D032C4C9CF8FEF88
S113007087BB84BB11BA8FB780688FBF80E58DB909
S113008082E083BF1FBC8AE08EBD809164009091A2
S1130090650086975CF48DE085BD81E080937600F1
S11300A0809164009091650086972CF08CE085BD6A
S11300B082E08093760080916400909165008B3497
S11300C091052CF08BE085BD84E0809376008091CF
S11300D06400909165008C3291402CF08AE085BDDB
S11300E080E180937600209160003091610040911E
S11300F062005091630060E07FE482E198E42BD2D7
S11301006B017C016091640070916500882777FD24
S11301108095982FB6D29B01AC01C701B6011BD2C2
S113012082D27BBD6ABD60916400709165008827AE
S113013077FD8095982FA5D29B01AC0160E07CE708
S113014082E995E408D26B017C016091760070E04D
S113015080E090E096D29B01AC01C701B6011DD3AB
S113016020E030E040E85FE391D15DD263BD81E1FE
S113017089BFA89880916600809388000F2EF0E4D0
S1130180CF2EF6E0DF2EE12CF12CF02D809B1CC04D
S113019080908A0090908B00A0908C00B0908D008D
S11301A02091720030917300409174005091750059
S11301B0A0E4B6E077D386169706A806B90620F41D
S11301C089B7806889BF03C089B78F7789BF819B4E
S11301D002C0AA9801C0AA9A60918A0070918B000B
S11301E080918C0090918D00A701960139D33093B2
S11301F0780020937700CACF1F920F920FB60F9208
S113020011242F938F939F93AF93BF93EF93FF93F7
S11302108091890090E08830910508F0ABC0FC0122
S1130220ED5EFF4F0994E09188008091800020E208
S1130230829FC0011124F0E0E959FF4F9081892B7E
S11302408FB9779BFECF80E88FB9779BFECF92C0A2
S1130250E091870080917F0020E2829FC0011124F9
S1130260F0E0E959FF4F9081892B8FB9779BFECF3E
S113027080E48FB9779BFECF7DC0E09186008091AA
S11302807E0020E2829FC0011124F0E0E959FF4F73
S11302909081892B8FB9779BFECF80E28FB9779BB2
S11302A0FECF68C0E091850080917D0020E2829FAE
S11302B0C0011124F0E0E959FF4F9081892B8FB9D7
S11302C0779BFECF80E18FB9779BFECF53C0E0913F
S11302D0840080917C0020E2829FC0011124F0E020
S11302E0E959FF4F9081892B8FB9779BFECF82E02C
S11302F08FB9779BFECF3EC0E091830080917B0055
S113030020E2829FC0011124F0E0E959FF4F90815F
S1130310892B8FB9779BFECF84E08FB9779BFECF73
S113032029C0E091820080917A0020E2829FC0017E
S11303301124F0E0E959FF4F9081892B8FB9779B05
S1130340FECF88E08FB9779BFECF14C0E091810087
S11303508091790020E2829FC0011124F0E0E959E4
S1130360FF4F9081892B8FB9779BFECF81E08FB9A6
S1130370779BFECFC29A88B3887F88BB8AEA8FB9FD
S1130380779BFECFC19A88B38C7F88BB809189000C
S11303908F5F883018F48093890002C0109289001E
S11303A0FF91EF91BF91AF919F918F912F910F90FA
S11303B00FBE0F901F9018951F920F920FB60F92B9
S11303C011248F939F9392B380E1892782BB9F91DD
S11303D08F910F900FBE0F901F9018951F920F9240
S11303E00FB60F921124CF92DF92EF92FF922F93C8
S11303F03F934F935F936F937F938F939F93AF93A9
S1130400BF9395B382E0892785BB80918A00909140
S11304108B00A0918C00B0918D000196A11DB11D9F
S113042080938A0090938B00A0938C00B0938D00EE
S1130430C0908A00D0908B00E0908C00F0908D00EA
S113044020917200309173004091740050917500B6
S1130450A0E4B6E027D2C616D706E806F90618F0D7
S113046089B78F7689BFBF91AF919F918F917F910B
S11304706F915F914F913F912F91FF90EF90DF909B
S1130480CF900F900FBE0F901F9018955058BB2718
S1130490AA270ED048C139D130F03ED120F031F432
S11304A09F3F11F41EF42EC10EF4E095E7FB24C126
S11304B0E92F4AD180F3BA176207730784079507B7
S11304C018F071F49EF562C10EF4E0950B2EBA2F6C
S11304D0A02D0B01B90190010C01CA01A001112446
S11304E0FF27591B99F0593F50F4503E68F11A16F2
S11304F0F040A22F232F342F4427585FF3CF469583
S113050037952795A795F0405395C9F77EF41F16A4
S1130510BA0B620B730B840BBAF09150A1F0FF0F6E
S1130520BB1F661F771F881FC2F70EC0BA0F621F5A
S1130530731F841F48F4879577956795B795F7954A
S11305409E3F08F0B3CF9395880F08F09927EE0FDC
S11305509795879508950CD0E6C0DED040F0D5D0AD
S113056030F021F45F3F19F0C7C0511110C1CAC067
S1130570EBD098F39923C9F35523B1F3951B550B8D
S1130580BB27AA2762177307840738F09F5F5F4F62
S1130590220F331F441FAA1FA9F333D00E2E3AF0A3
S11305A0E0E830D091505040E695001CCAF729D0BD
S11305B0FE2F27D0660F771F881FBB1F261737070C
S11305C04807AB07B0E809F0BB0B802DBF01FF273C
S11305D093585F4F2AF09E3F510568F08DC0D7C0F5
S11305E05F3FECF3983EDCF3869577956795B79576
S11305F0F7959F5FC9F7880F911D9695879597F991
S11306000895E1E0660F771F881FBB1F6217730709
S11306108407BA0720F0621B730B840BBA0BEE1F1E
S113062088F7E095089598D088F09F5790F0B92FF7
S11306309927B751A0F0D1F0660F771F881F991F33
S11306401AF0BA95C9F712C0B13081F09FD0B1E069
S113065008959CC0672F782F8827B85F39F0B93F79
S1130660CCF3869577956795B395D9F73EF4909535
S11306708095709561957F4F8F4F9F4F0895E894B3
S113068009C097FB3EF490958095709561957F4FD6
S11306908F4F9F4F9923A9F0F92F96E9BB27939584
S11306A0F695879577956795B795F111F8CFFAF494
S11306B0BB0F11F460FF1BC06F5F7F4F8F4F9F4FC5
S11306C016C0882311F096E911C0772321F09EE823
S11306D0872F762F05C0662371F096E8862F70E089
S11306E060E02AF09A95660F771F881FDAF7880F63
S11306F09695879597F9089597F99F6780E870E034
S113070060E008959FEF80EC089500240A94161683
S1130710170618060906089500240A9412161306EB
S1130720140605060895092E0394000C11F4882379
S113073052F0BB0F40F4BF2B11F460FF04C06F5F95
S11307407F4F8F4F9F4F089557FD9058440F551F6B
S113075059F05F3F71F04795880F97FB991F61F03F
S11307609F3F79F087950895121613061406551FB6
S1130770F2CF4695F1DF08C0161617061806991F22
S1130780F1CF86957105610508940895E894BB2717
S113079066277727CB0197F908950BD0C4CFB5DF2F
S11307A028F0BADF18F0952309F0A6CFABCF1124B7
S11307B0EECFCADFA0F3959FD1F3950F50E0551FFC
S11307C0629FF001729FBB27F00DB11D639FAA27A2
S11307D0F00DB11DAA1F649F6627B00DA11D661FF1
S11307E0829F2227B00DA11D621F739FB00DA11D12
S11307F0621F839FA00D611D221F749F3327A00DCC
S1130800611D231F849F600D211D822F762F6A2F67
S113081011249F5750408AF0E1F088234AF0EE0FEC
S1130820FF1FBB1F661F771F881F91505040A9F7F9
S11308309E3F510570F060CFAACF5F3FECF3983E26
S1130840DCF3869577956795B795F795E7959F5F60
S1130850C1F7FE2B880F911D9695879597F90895FA
S1130860A1E21A2EAA1BBB1BFD010DC0AA1FBB1FB0
S1130870EE1FFF1FA217B307E407F50720F0A21B22
S1130880B30BE40BF50B661F771F881F991F1A948F
S113089069F760957095809590959B01AC01BD01B9
S11308A0CF01089509D0A59F900DB49F900DA49FEA
S11308B0800D911D11240895A29FB001B39FC00122
S11308C0A39F01D0B29F700D811D1124911D089525
S10708D0F894FFCFC6
S11308D400000040C8000AD714CD5D1E5BDB15DFA1
S10908E45F08E8030000B8
S9030000FC
