:100000000C9456000C9460000C9460000C946000FA
:100010000C948B000C9460000C9460000C946000B5
:100020000C9460000C9460000C9460000C946000D0
:100030000C9460000C9460000C9460000C946000C0
:100040000C9460000C9460000C9460000C946000B0
:100050000C9460000C9460000C9460000C946000A0
:100060000C9460000C9460000C9460000C94600090
:100070000C9460000C9460000C9460000C94600080
:100080000C9460000C9460000C9460000C94600070
:100090000C9460000C9460000C9460000C94600060
:1000A0000C9460000C9460000C94600011241FBE3E
:1000B000CFEFDAE0DEBFCDBF0E9462000C94FD00FE
:1000C0000C940000239A84B18C7F84B98AB183692F
:1000D0008AB93E9A6E9A8AB1807F8AB98FB7806852
:1000E0008FBF80EC80936900EB9A88B1807888B9E3
:1000F0008BB11BB88BB18C7F8BB98EB180788EB9E8
:10010000589885B1807F85B98BB1807F8BB9199B59
:10011000FECF2B9AFCCF1F920F920FB60F92112495
:100120002F938F939F932FEF83EC99E02150804082
:100130009040E1F700C00000469A5F9A599A769A7B
:10014000589A2FEF83ED90E3215080409040E1F7E3
:1001500000C0000088B1807888B95F9A599A769A71
:10016000589A2FEF83ED90E3215080409040E1F7C3
:1001700000C000008BB11BB8599A769A589A2FEF9D
:1001800083ED90E3215080409040E1F700C00000F3
:100190008BB18C7F8BB9769A589A2FEF83ED90E3D1
:1001A000215080409040E1F700C000008EB180787F
:1001B0008EB9589A2FEF83ED90E321508040904004
:1001C000E1F700C00000589885B1807F85B95C9A3E
:1001D0002FEF87EA91E6215080409040E1F700C080
:1001E00000008BB1807E8BB9E39A9F918F912F9104
:0E01F0000F900FBE0F901F901895F894FFCF40
:00000001FF
