S00F00006D6269353032362E7372656310
S11300001AC034C033C032C031C030C02FC02EC07B
S11300102DC06AC02BC02AC029C028C027C026C052
S113002025C024C023C076C083C090C09DC0AAC090
S1130030B7C0C4C0D1C011241FBECFE5D4E0DEBF19
S1130040CDBF10E0A0E6B0E0E6E7F2E002C0059024
S11300500D92AE36B107D9F720E0AEE6B0E001C0AC
S11300601D92A737B207E1F702D003C1C9CF8FEFC2
S113007087BB80E58DB98FB780688FBF82E083BF6F
S113008081E089BF80916A0090916B00C8EED3E053
S1130090BE01C8D0E62EE4E6F0E0BF01C3D0F62EE0
S11300A02AE030E0B901BED0062F182F80916C00F1
S11300B090916D00BE01B6D0C62FBF01B3D0462FBC
S11300C0B901B0D0962FE0927100F09270000093C5
S11300D06F0010936E00C09375004093740090936A
S11300E0730080937200EFCF1F920F920FB60F929E
S11300F011248F939F93AF93BF93EF93FF938091BA
S1130100760090E08830910508F073C0FC01ED5E44
S1130110FF4F0994E0917500F0E0E05AFF4F8081B1
S11301208FB9779BFECF80E88FB9779BFECF61C0F4
S1130130E0917400F0E0E05AFF4F80818FB9779B23
S1130140FECF80E48FB9779BFECF53C0E09173005C
S1130150F0E0E05AFF4F80818FB9779BFECF80E2B9
S11301608FB9779BFECF45C0E0917200F0E0E05A72
S1130170FF4F80818FB9779BFECF80E18FB9779B4A
S1130180FECF37C0E0917100F0E0E05AFF4F80816C
S11301908FB9779BFECF82E08FB9779BFECF29C0C2
S11301A0E0917000F0E0E05AFF4F80818FB9779BB7
S11301B0FECF84E08FB9779BFECF1BC0E0916F0028
S11301C0F0E0E05AFF4F80818FB9779BFECF88E043
S11301D08FB9779BFECF0DC0E0916E00F0E0E05A3E
S11301E0FF4F80818FB9779BFECF81E08FB9779BDA
S11301F0FECFC29A88B3887F88BB809176008F5FD8
S1130200883018F48093760002C010927600FF9133
S1130210EF91BF91AF919F918F910F900FBE0F906F
S11302201F90189597FB072E16F4009406D077FDBF
S113023008D00BD007FC05D03EF4909581959F4FD4
S11302400895709561957F4F0895AA1BBB1B51E1DA
S113025007C0AA1FBB1FA617B70710F0A61BB70B32
S1130260881F991F5A95A9F780959095BC01CD01D7
S10902700895F894FFCF8D
S1110276D714CD5D1E5BDB15DF5F070A8D0D0F
S9030000FC
