S00F0000706366383537342E7372656304
S113000012C021C020C01FC01EC01DC03DC01BC0E7
S11300101AC019C018C017C016C015C014C013C028
S113002012C011C010C011241FBECFE5D4E0DEBF42
S1130030CDBF20E0A0E6B0E001C01D92A136B2071A
S1130040E1F702D03AC0DCCF20E82FBD8CE08EBDB2
S113005080E189BF81E19AE79BBD8ABD2BBF82E124
S113006080B981E081B984EA86BF06B607FEFDCF78
S11300708EE483B984E886BF06B607FEFDCF84E923
S113008086BF80E090E008951F920F920FB60F9202
S113009011248F938091600083B984E886BF06B6EB
S11300A007FEFDCF809160008150809360008F91A6
S11100B00F900FBE0F901F901895F894FFCF7D
S9030000FC
