S00D000036307365632E7372656376
S11300000C9434000C943E000C943E000C943E007E
S11300100C943E000C943E000C943E000C943E0064
S11300200C943E000C943E000C943E000C94590039
S11300300C943E000C943E000C943E000C943E0044
S11300400C943E000C943E000C943E000C943E0034
S11300500C943E000C943E000C943E000C943E0024
S11300600C943E000C943E0011241FBECFEFD8E048
S1130070DEBFCDBF0E9440000C946B000C940000C6
S11300808FB780688FBF8FEF8AB9589A89E09DE354
S11300909093890080938800EFE6F0E0808182608D
S11300A08083109280008CE0809381001092820003
S11300B0FFCF1F920F920FB60F9211248F939F932D
S11300C09BB181E089278BB99F918F910F900FBECF
S10D00D00F901F901895F894FFCFCD
S9030000FC
