S0100000434F4D5F746573742E7372656316
S11300001AC034C033C0B0C131C030C055C12EC0D5
S11300102DC0B4C02BC02AC029C028C027C026C008
S113002025C024C023C0C0C0CDC0DAC0E7C0F4C01E
S113003001C10EC11BC111241FBECFE5D4E0DEBF38
S1130040CDBF10E0A0E6B0E0EAE1F4E002C0059024
S11300500D92AE36B107D9F720E0AEE6B0E001C0AC
S11300601D92A138B207E1F702D0D5C1C9CF87B339
S11300708C6287BB81B3806C81BB8FB780688FBF74
S113008080E58DB98CE085BD8BE085BD8AE085BDBA
S11300901FBC8EBD82E083BF8CE790E09BBD8ABD10
S11300A083BD81E989BF00E416E028EE33E0E4E68D
S11300B0F0E0CAE0D0E080916E0090916F00B8014A
S11300C06DD17093710060937000709373006093AE
S11300D072008091700090917100B9015FD16093BA
S11300E077008091700090917100B90157D1BF01E0
S11300F055D1609376008091700090917100B901A0
S11301004DD1BF014BD1BE0149D16093750080919F
S1130110700090917100B90141D1BF013FD1BE017E
S11301203DD1809374008091720090917300B90165
S113013035D160937B008091720090917300B90176
S11301402DD1BF012BD160937A00809172009091E0
S11301507300B90123D1BF0121D1BE011FD1609326
S113016079008091720090917300B90117D1BF0199
S113017015D1BE0113D1809378009DCF1F920F92A9
S11301800FB60F9211248F939F93AF93BF93EF9366
S1130190FF9380917C0090E08830910508F073C053
S11301A0FC01ED5EFF4F0994E0917B00F0E0E05A22
S11301B0FF4F80818FB9779BFECF80E88FB9779B03
S11301C0FECF61C0E0917A00F0E0E05AFF4F8081F9
S11301D08FB9779BFECF80E48FB9779BFECF53C056
S11301E0E0917900F0E0E05AFF4F80818FB9779B6E
S11301F0FECF80E28FB9779BFECF45C0E0917800B7
S1130200F0E0E05AFF4F80818FB9779BFECF80E109
S11302108FB9779BFECF37C0E0917700F0E0E05ACA
S1130220FF4F80818FB9779BFECF82E08FB9779B98
S1130230FECF29C0E0917600F0E0E05AFF4F8081C4
S11302408FB9779BFECF84E08FB9779BFECF1BC01D
S1130250E0917500F0E0E05AFF4F80818FB9779B01
S1130260FECF88E08FB9779BFECF0DC0E09174007C
S1130270F0E0E05AFF4F80818FB9779BFECF81E099
S11302808FB9779BFECFC29A88B3887F88BB809151
S11302907C008F5F883018F480937C0002C0109239
S11302A07C00FF91EF91BF91AF919F918F910F903F
S11302B00FBE0F901F9018951F920F920FB60F92BA
S11302C01124CF92DF92EF92FF922F933F934F939B
S11302D05F936F937F938F939F93AF93BF9392B3E7
S11302E080E4892782BB80917D0090917E00A0915B
S11302F07F00B09180000196A11DB11D80937D0007
S113030090937E00A0937F00B093800020916A00B8
S113031030916B0040916C0050916D00C0907D0055
S1130320D0907E00E0907F00F0908000A0E4B6E0E2
S113033048D0C616D706E806F90618F089B78F76AE
S113034089BFBF91AF919F918F917F916F915F9181
S11303504F913F912F91FF90EF90DF90CF900F90AE
S11303600FBE0F901F9018951F920F920FB60F9209
S113037011248F939F9382B3805882BB80916E0027
S113038090916F00019690936F0080936E009F91FF
S11303908F910F900FBE0F901F90189597FB072E0B
S11303A016F4009406D077FD08D015D007FC05D0CC
S11303B03EF4909581959F4F0895709561957F4F78
S11303C008951DD0A59F900DB49F900DA49F800DFE
S11303D0911D11240895AA1BBB1B51E107C0AA1F3C
S11303E0BB1FA617B70710F0A61BB70B881F991FD2
S11303F05A95A9F780959095BC01CD010895A29FC7
S1130400B001B39FC001A39F01D0B29F700D811DA5
S10D04101124911D0895F894FFCF04
S111041AD714CD5D1E5BDB15DF5F64000000B0
S9030000FC
