:1000000012C021C020C01FC01EC01DC01CC01BC00C
:100010001AC019C018C017C016C015C014C013C02C
:1000200012C011C010C011241FBECFE5D4E0DEBF46
:10003000CDBF20E0A0E6B0E001C01D92A936B20716
:10004000E1F702D073C0DCCF84E083BF12BE87B378
:1000500087BB81B3876081BB91E086B3817086BB2B
:10006000882351F080916800811112C082B780937B
:100070006500909368000CC080916800813041F465
:100080001092680082B720916500821B8093620005
:1000900086B3827086BB882351F0809167008111FE
:1000A00012C082B780936400909367000CC0809167
:1000B0006700813041F41092670082B7209164009C
:1000C000821B8093610086B3847086BB882351F0C5
:1000D00080916600811112C082B780936300909373
:1000E00066000CC080916600813041F41092660079
:1000F00082B720916300821B809360008091620030
:10010000853110F0909A01C09098809161008531FE
:1001100010F0919A01C0919880916000853110F0A3
:10012000929A01C0929886B316BA97CFF894FFCFEF
:00000001FF
