S00D000054494D45432E73726563A5
S11300000C9456000C9460000C9460000C946000F6
S11300100C9488000C9460000C9460000C946000B4
S11300200C9460000C9460000C9460000C946000CC
S11300300C9460000C9460000C9460000C946000BC
S11300400C9460000C9460000C9460000C946000AC
S11300500C9460000C9460000C9460000C9460009C
S11300600C9460000C9460000C9460000C9460008C
S11300700C9460000C9460000C9460000C9460007C
S11300800C9460000C9460000C9460000C9460006C
S11300900C9460000C9460000C9460000C9460005C
S11300A00C9460000C9460000C94600011241FBE3A
S11300B0CFEFDAE0DEBFCDBF0E9462000C94BB003C
S11300C00C940000239A84B18C7F84B98AB183692B
S11300D08AB93E9A6E9A8AB1807F8AB98FB780684E
S11300E08FBF80EC80936900EB9A88B1807888B9DF
S11300F08BB11BB88BB18C7F8BB98EB180788EB9E4
S1130100589885B1807F85B98BB1807F8BB9FFCF3B
S11301101F920F920FB60F9211242F938F939F93D8
S1130120589A599A5F9A469A769A2B9A5C9A2FEF24
S113013083ED90E3215080409040E1F700C000003F
S113014088B1807888B98BB11BB88BB18C7F8BB99F
S11301508EB180788EB9589885B1807F85B98BB17E
S1130160807E8BB9E39A9F918F912F910F900FBE50
S10D01700F901F901895F894FFCF2C
S9030000FC
