:1000000012C021C020C01FC01EC01DC01CC01BC00C
:100010001AC019C018C017C016C015C014C013C02C
:1000200012C011C010C011241FBECFE5D4E0DEBF46
:10003000CDBF20E0A0E6B0E001C01D92A236B2071D
:10004000E1F702D028C0DCCF84E083BF12BE8FEF7F
:1000500081BB87B387BB91E086B3817086BB882361
:1000600041F08091600081110DC012BE909360003C
:1000700009C080916000813029F41092600082B73D
:1000800080936100809161008F3510F0909AE4CFE9
:0A00900082B312BAE1CFF894FFCF5B
:00000001FF
