S00E000074696E7931332E73726563EE
S113000009C016C015C014C013C012C011C010C05E
S11300100FC00EC011241FBECFE9CDBF20E0A0E663
S1130020B0E001C01D92A436B207E1F702D048C087
S1130030E7CF83B7816083BF83B783BF12BE31E04C
S1130040B09AB19AB29A12BE3093630086B386BB5B
S1130050882319F082B78093620086B386BB882315
S113006019F082B78093610086B386BB882319F0A8
S113007082B78093600026B326BB96B396BB86B343
S113008086BB9223892319F012BE109263008091DB
S113009062008E3210F0C39A02C088B388BB80918C
S11300A061008E3210F0C49A02C088B388BB80917C
S11300B060008E3210F0C59AC3CF88B388BBC0CF1E
S10700C0F894FFCFDE
S9030000FC
