S00F0000373468633539352E737265633C
S113000012C0AAC12BC02AC029C028C027C026C03C
S113001025C03DC123C022C021C020C0C6C11EC00E
S11300201DC01CC01BC011241FBECFE5D4E0DEBF21
S1130030CDBF10E0A0E6B0E0EEEDF6E002C0059022
S11300400D92A438B107D9F720E0A4E8B0E001C0CC
S11300501D92A339B207E1F702D03FC3D1CF82E4A6
S113006087B98CEC86B987B38C6287BB88B3837DF0
S113007088BB80E58DB981B38F7181BB82B3806EFB
S113008082BB889A82E88FBD81E18EBD80E29EE4C6
S113009097BD86BDB99A84B3887F84BB85E083BF4E
S11300A012BE85BD14BC8FB780688FBF89B78160CD
S11300B089BF80E48BBF82E085BF10928A009FEFE6
S11300C09FB9779BFECFC29AC29880918A008F5FB6
S11300D080938A008530A0F3C0E0D0E000E011E016
S11300E077247394612C0F2EF3E0AF2EB12CF02DF6
S11300F06894CC24C2F8D12C0F2EF4E6EF2EF12C08
S1130100F02D0F2EFAE08F2E912CF02D0F2EFDECFA
S11301105F2EF02D879905C080918700882309F40C
S1130120AEC0033008F0062D869905C08091860084
S1130130882309F4A8C0163008F0172D013031F0D7
S113014018F0023039F007C0909805C082B38725B3
S113015082BB01C0909A123009F118F4113031F0C9
S11301602FC0133021F1143039F12AC0709263008A
S1130170609262006091840070918500882777FD09
S11301808095982F94D12DEC3CEC4CEC5DE3F3D1AD
S11301905BD1709391006093900012C0D093910052
S11301A0C0939000709263006092620009C0B092A4
S11301B09100A092900004C0D0929100C09290004F
S11301C084B58B3F10F0609292006091880070912A
S11301D0890080E090E069D12FE632E143E05BE3FF
S11301E0CAD132D1EB016091920070E080E090E0DE
S11301F05ED12DEC3CEC4CEC5DE3BDD12AD1609397
S11302008F006091900070919100882777FD809510
S1130210982F4DD12AE037ED43E25CE3ACD119D1FC
S113022060938E008091900090919100B7012ED23E
S1130230BC01882777FD8095982F39D12DEC3CECB3
S11302404CEC5DE398D105D160938D0080919000D2
S113025090919100B4011AD280938C0090919200F5
S1130260959D812D1124869586958695880F282F36
S1130270220F220F820F981B90938B004BCF0F5F9E
S1130280709287004ECF1F5F7092860054CF1F92EA
S11302900F920FB60F9211242F938F939F93EF9386
S11302A0FF93E0918B0090916000F0E0EB59FF4FD9
S11302B08081892B8FB9779BFECFE0918C00909140
S11302C06100F0E0EB59FF4F8081892B8FB9779B58
S11302D0FECFE0918D008091620020E8829FC001F2
S11302E01124F0E0E159FF4F9081892B8FB9779B5E
S11302F0FECFE0918E008091630020E1829FC001D7
S11303001124F0E0E758FF4F9081892B8FB9779B38
S1130310FECFE0918F008091640020E1829FC001B4
S11303201124F0E0E758FF4F9081892B8FB9779B18
S1130330FECFC29AC29812BE8699109286008799FF
S113034010928700FF91EF919F918F912F910F90C1
S11303500FBE0F901F9018951F920F920FB60F9219
S113036011245F936F937F938F939F93AF93BF9366
S113037064B570E088E795E089D16093920014BC7D
S113038080918800909189000196909389008093D0
S11303908800BF91AF919F918F917F916F915F91F1
S11303A00F900FBE0F901F9018951F920F920FB6CB
S11303B00F9211242F933F934F935F936F937F93E7
S11303C08F939F93AF93BF93EF93FF9387B1803441
S11303D019F08234C1F026C064B175B180E090E0B8
S11303E064D028E431EE4AEF5EE3C5D020E030E08B
S11303F040EA50E4C0D028D0709385006093840014
S113040082E487B90FC084B195B19C01220F331FD8
S1130410220F331F820F931F8C5291409BBD8ABDC4
S113042080E487B9369AFF91EF91BF91AF919F9184
S11304308F917F916F915F914F913F912F910F9089
S11304400FBE0F901F90189504D06894B1118DC001
S1130450089570D088F09F5790F0B92F9927B7511D
S1130460A0F0D1F0660F771F881F991F1AF0BA9574
S1130470C9F712C0B13081F077D0B1E0089574C0EB
S1130480672F782F8827B85F39F0B93FCCF386956A
S113049077956795B395D9F73EF4909580957095C7
S11304A061957F4F8F4F9F4F0895E89409C097FB44
S11304B03EF490958095709561957F4F8F4F9F4F37
S11304C09923A9F0F92F96E9BB279395F69587957B
S11304D077956795B795F111F8CFFAF4BB0F11F43E
S11304E060FF1BC06F5F7F4F8F4F9F4F16C08823E5
S11304F011F096E911C0772321F09EE8872F762F1B
S113050005C0662371F096E8862F70E060E02AF05B
S11305109A95660F771F881FDAF7880F9695879547
S113052097F9089557FD9058440F551F59F05F3FB0
S113053071F04795880F97FB991F61F09F3F79F001
S113054087950895121613061406551FF2CF469583
S1130550F1DF08C0161617061806991FF1CF869505
S11305607105610508940895E894BB2766277727E9
S1130570CB0197F908950BD078C069D028F06ED0DC
S113058018F0952309F05AC05FC01124EECFCADFDA
S1130590A0F3959FD1F3950F50E0551F629FF00192
S11305A0729FBB27F00DB11D639FAA27F00DB11DEB
S11305B0AA1F649F6627B00DA11D661F829F222774
S11305C0B00DA11D621F739FB00DA11D621F839FFB
S11305D0A00D611D221F749F3327A00D611D231FD1
S11305E0849F600D211D822F762F6A2F11249F571F
S11305F050408AF0E1F088234AF0EE0FFF1FBB1F42
S1130600661F771F881F91505040A9F79E3F5105E0
S113061070F014C0AACF5F3FECF3983EDCF38695EC
S113062077956795B795F795E7959F5FC1F7FE2B8B
S1130630880F911D9695879597F9089597F99F6767
S113064080E870E060E008959FEF80EC0895002456
S11306500A941616170618060906089500240A9423
S113066012161306140605060895092E0394000CA9
S113067011F4882352F0BB0F40F4BF2B11F460FF38
S113068004C06F5F7F4F8F4F9F4F089597FB072ED6
S113069016F4009406D077FD08D00BD007FC05D0E3
S11306A03EF4909581959F4F0895709561957F4F85
S11306B00895AA1BBB1B51E107C0AA1FBB1FA617A5
S11306C0B70710F0A61BB70B881F991F5A95A9F7F7
S11106D080959095BC01CD010895F894FFCF5C
S11306DE0101010101107C22284C88803C00080194
S11306EE37421234180833001001C72282C4880816
S10706FEC3008000B1
S9030000FC
