S0170000377365676D656E745F7374617469632E73726563FC
S113000012C019C018C017C016C015C014C013C040
S113001012C011C010C00FC00EC00DC00CC00BC068
S11300200AC009C008C011241FBECFE5D4E0DEBF5A
S1130030CDBF02D072C0E4CF8FE781BBF6E0EBE521
S11300407FE466E65DE64DE737E02FE79FE68FE362
S1130050F2BBAFEFB9E6C8E1A150B040C040E1F750
S113006000C00000E2BBAFEFB9E6C8E1A150B04068
S1130070C040E1F700C0000072BBAFEFB9E6C8E1D1
S1130080A150B040C040E1F700C0000062BBAFEF38
S1130090B9E6C8E1A150B040C040E1F700C000009B
S11300A052BBAFEFB9E6C8E1A150B040C040E1F7A0
S11300B000C0000042BBAFEFB9E6C8E1A150B040B8
S11300C0C040E1F700C0000032BBAFEFB9E6C8E1C1
S11300D0A150B040C040E1F700C0000022BBAFEF28
S11300E0B9E6C8E1A150B040C040E1F700C000004B
S11300F092BBAFEFB9E6C8E1A150B040C040E1F710
S113010000C0000082BBAFEFB9E6C8E1A150B04027
S1110110C040E1F700C000009BCFF894FFCF81
S9030000FC
