S010000073616D6F6B6174322E73726563F2
S113000012C024C023C022C021C020C01FC01EC0F3
S11300101DC01CC01BC01AC019C018C017C016C010
S113002015C014C013C011241FBECFE5D4E0DEBF39
S1130030CDBF10E0A0E6B0E0E6ECF3E002C005902E
S11300400D92AA36B107D9F702D0BBC1D9CFCF934D
S1130050DF93CDB7DEB72A970FB6F894DEBF0FBE95
S1130060CDBF8FEF81BB87B38E6387BB83E085BB36
S113007085E083BF81E082BF8AE0E0E6F0E0DE0154
S1130080119601900D928A95E1F720E030E0A901E4
S11300906AE47CE082E89EE34CD026E636E646E657
S11300A050E42CD1AED08DEC689F812D112486951F
S11300B086958695282F220F922F990F990F920FCC
S11300C0691B21E030E041E050E0E1E0F0E0EC0FBA
S11300D0FD1FE60FF11DA1E0B0E0AC0FBD1FA80F9E
S11300E0B11D71E082B790E0831B910918161906BF
S11300F064F468B3CA01022E02C0880F991F0A94DF
S1130100E2F7862B88BB3F5F2F5F213019F0223046
S113011019F004C08C9182BB808182BB253009F424
S113012021E03F3F09F430E082B78F3FD9F672BF38
S1130130D9CF0CD0A9C0A1D040F098D030F021F490
S11301405F3F19F08AC05111D3C08DC0AED098F36F
S11301509923C9F35523B1F3951B550BBB27AA2744
S113016062177307840738F09F5F5F4F220F331FB6
S1130170441FAA1FA9F333D00E2E3AF0E0E830D082
S113018091505040E695001CCAF729D0FE2F27D085
S1130190660F771F881FBB1F261737074807AB0753
S11301A0B0E809F0BB0B802DBF01FF2793585F4FC8
S11301B02AF09E3F510568F050C09AC05F3FECF3AF
S11301C0983EDCF3869577956795B795F7959F5F8D
S11301D0C9F7880F911D9695879597F90895E1E0E1
S11301E0660F771F881FBB1F621773078407BA0740
S11301F020F0621B730B840BBA0BEE1F88F7E0959B
S113020008955BD088F09F5790F0B92F9927B75184
S1130210A0F0D1F0660F771F881F991F1AF0BA95C6
S1130220C9F712C0B13081F062D0B1E008955FC067
S1130230672F782F8827B85F39F0B93FCCF38695BC
S113024077956795B395D9F73EF490958095709519
S113025061957F4F8F4F9F4F089597F99F6780E86F
S113026070E060E008959FEF80EC089500240A9404
S11302701616170618060906089500240A9412167D
S11302801306140605060895092E0394000C11F4B0
S1130290882352F0BB0F40F4BF2B11F460FF04C05D
S11302A06F5F7F4F8F4F9F4F089557FD9058440FB6
S11302B0551F59F05F3F71F04795880F97FB991FC1
S11302C061F09F3F79F0879508951216130614067E
S11302D0551FF2CF4695F1DF08C01616170618060B
S11302E0991FF1CF86957105610508940895E894E6
S11302F0BB2766277727CB0197F908950BD0C4CF86
S1130300B5DF28F0BADF18F0952309F0A6CFABCFFC
S11303101124EECFCADFA0F3959FD1F3950F50E0DF
S1130320551F629FF001729FBB27F00DB11D639FA3
S1130330AA27F00DB11DAA1F649F6627B00DA11D49
S1130340661F829F2227B00DA11D621F739FB00DEF
S1130350A11D621F839FA00D611D221F749F33275F
S1130360A00D611D231F849F600D211D822F762FF8
S11303706A2F11249F5750408AF0E1F088234AF0F5
S1130380EE0FFF1FBB1F661F771F881F9150504041
S1130390A9F79E3F510570F060CFAACF5F3FECF301
S11303A0983EDCF3869577956795B795F795E7952D
S11303B09F5FC1F7FE2B880F911D9695879597F93E
S10903C00895F894FFCF3C
S10D03C6FFFFFFFFFFFFFFFFFFFF33
S9030000FC
