:1000000026C035C034C033C032C031C030C02FC06C
:100010002EC02DC02CC02BC02AC029C028C027C08C
:1000200026C025C024C0B2C0B8C0BBC0C1C0C7C0B4
:10003000CDC0D3C0D9C0DDC0E3C03DC143C146C1BE
:100040004CC152C158C15EC164C168C16EC11124A6
:100050001FBECFE5D4E0DEBFCDBF20E0A0E6B0E01C
:1000600001C01D92A836B207E1F702D04BC3C8CF3A
:1000700084B38D6384BB81B38F6081BBB99A85E003
:1000800083BF12BE83EE86B981EC87B9CAE0D0E0A7
:1000900011E064B175B180E090E01CD22AE037ED48
:1000A00043E25BE3A5D22CEB34E743E95DE37CD18B
:1000B00027E33FE143E451E49BD220E030E040E21B
:1000C00051E496D2D6D1709361006093600022B75C
:1000D000223329F4709363006093620012BEE090B3
:1000E0006200F09063001E141F043CF01092630045
:1000F00010926200E12CF12C1DC084E6E816F10498
:10010000CCF0B7010F2C000C880B990BE5D12AE03D
:1001100037ED43E25CE36CD2B1D160936700C70175
:10012000BE01C9D2CB01BE01C6D280936600109237
:10013000650015C0B7010F2C000C880B990BCCD1B2
:100140002DEC3CEC4CEC5DE353D298D1609367000E
:10015000C701BE01B0D2809366001093650085B3DD
:1001600015BAC19A82B78093640092B780916400F7
:10017000981354C0E09167008E2F90E08A3091056B
:1001800008F044C0FC01ED5EFF4F099482B38C601F
:1001900082BB85B38C6385BB39C085B38C6085BB5E
:1001A00035C082B3856082BB85B3846385BB2EC0B6
:1001B00082B3856082BB85B38C6285BB27C082B366
:1001C000896082BB85B38C6085BB20C082B38D60A3
:1001D00082BB85B3886285BB19C082B38D6082BB48
:1001E00085B3886385BB12C0929A85B38C6085BB4A
:1001F0000DC082B38D6082BB85B38C6385BB06C0A6
:1002000082B38D6082BB85B38C6285BB80916500B3
:10021000813011F4919AA9CF9198A7CF88B318BAD9
:1002200082B3837F82BB85B3837C85BB85B3837FA9
:1002300085BB82B38A7F82BB85B38B7C85BB82B34F
:100240008A7F82BB85B3837D85BB82B3867F82BB79
:1002500085B3837F85BB82B3827F82BB85B3877D75
:1002600085BB82B3827F82BB85B3877C85BB929836
:1002700085B3837F85BB82B3827F82BB85B3837C5A
:1002800085BB82B3827F82BB85B3837D85BB91981A
:10029000A89A82B7809364003091640080916600D0
:1002A00090E022B7231348C0FC018A309105C8F7BB
:1002B000E35EFF4F099482B38C6082BB85B38C638D
:1002C00085BBEACF85B38C6085BBE6CF82B3856002
:1002D00082BB85B3846385BBDFCF82B3856082BB7D
:1002E00085B38C6285BBD8CF82B3896082BB85B36E
:1002F0008C6085BBD1CF82B38D6082BB85B38862B1
:1003000085BBCACF82B38D6082BB85B3886385BB52
:10031000C3CF929A85B38C6085BBBECF82B38D600C
:1003200082BB85B38C6385BBB7CF82B38D6082BB44
:1003300085B38C6285BBB0CF82B3837F82BB85B32C
:10034000837C85BB85B3837F85BB82B38A7F82BB79
:1003500085B38B7C85BB82B38A7F82BB85B3837D6B
:1003600085BB82B3867F82BB85B3837F85BB82B327
:10037000827F82BB85B3877D85BB82B3827F82BB50
:1003800085B3877C85BB929885B3837F85BB82B319
:10039000827F82BB85B3837C85BB82B3827F82BB35
:1003A00085B3837D85BB75CE5058BB27AA270ED059
:1003B000E5C0D6D030F0DBD020F031F49F3F11F40F
:1003C0001EF4CBC00EF4E095E7FBC1C0E92FE7D0E7
:1003D00080F3BA17620773078407950718F071F462
:1003E0009EF5FFC00EF4E0950B2EBA2FA02D0B0149
:1003F000B90190010C01CA01A0011124FF27591B6A
:1004000099F0593F50F4503E68F11A16F040A22F6F
:10041000232F342F4427585FF3CF469537952795E0
:10042000A795F0405395C9F77EF41F16BA0B620BDF
:10043000730B840BBAF09150A1F0FF0FBB1F661F26
:10044000771F881FC2F70EC0BA0F621F731F841F69
:1004500048F4879577956795B795F7959E3F08F08F
:10046000B3CF9395880F08F09927EE0F979587954E
:10047000089504D06894B111B5C0089598D088F05B
:100480009F5790F0B92F9927B751A0F0D1F0660F80
:10049000771F881F991F1AF0BA95C9F712C0B1309B
:1004A00081F09FD0B1E008959CC0672F782F8827F6
:1004B000B85F39F0B93FCCF3869577956795B395DA
:1004C000D9F73EF490958095709561957F4F8F4F49
:1004D0009F4F0895E89409C097FB3EF4909580954E
:1004E000709561957F4F8F4F9F4F9923A9F0F92FFA
:1004F00096E9BB279395F695879577956795B79578
:10050000F111F8CFFAF4BB0F11F460FF1BC06F5F5D
:100510007F4F8F4F9F4F16C0882311F096E911C06F
:10052000772321F09EE8872F762F05C0662371F090
:1005300096E8862F70E060E02AF09A95660F771FA4
:10054000881FDAF7880F9695879597F9089597F998
:100550009F6780E870E060E008959FEF80EC089569
:1005600000240A9416161706180609060895002492
:100570000A9412161306140605060895092E03940C
:10058000000C11F4882352F0BB0F40F4BF2B11F480
:1005900060FF04C06F5F7F4F8F4F9F4F089557FDDF
:1005A0009058440F551F59F05F3F71F04795880FE1
:1005B00097FB991F61F09F3F79F087950895121678
:1005C00013061406551FF2CF4695F1DF08C0161624
:1005D00017061806991FF1CF8695710561050894D5
:1005E0000895E894BB2766277727CB0197F90895EC
:1005F0000BD0C4CFB5DF28F0BADF18F0952309F08F
:10060000A6CFABCF1124EECFCADFA0F3959FD1F3D5
:10061000950F50E0551F629FF001729FBB27F00DB0
:10062000B11D639FAA27F00DB11DAA1F649F662705
:10063000B00DA11D661F829F2227B00DA11D621F54
:10064000739FB00DA11D621F839FA00D611D221F0E
:10065000749F3327A00D611D231F849F600D211DF2
:10066000822F762F6A2F11249F5750408AF0E1F095
:1006700088234AF0EE0FFF1FBB1F661F771F881FDE
:1006800091505040A9F79E3F510570F060CFAACF1E
:100690005F3FECF3983EDCF3869577956795B795C9
:1006A000F795E7959F5FC1F7FE2B880F911D9695F3
:1006B000879597F9089597FB072E16F4009406D0B6
:1006C00077FD08D00BD007FC05D03EF490958195BE
:1006D0009F4F0895709561957F4F0895AA1BBB1B8E
:1006E00051E107C0AA1FBB1FA617B70710F0A61B32
:1006F000B70B881F991F5A95A9F780959095BC0153
:08070000CD010895F894FFCF2C
:00000001FF
