:1000000012C02CC02BC02AC029C028C027C026C0BF
:1000100025C024C023C022C021C020C01FC01EC0D4
:100020001DC01CC01BC011241FBECFE5D4E0DEBF25
:10003000CDBF10E0A0E6B0E0E8EFF0E002C0059030
:100040000D92AA36B107D9F720E0AAE6B0E001C0C8
:100050001D92AE36B207E1F702D04CC0D1CF84E09A
:1000600083BF8FEF81BB87B3806C87BB12BE3DEC33
:1000700042E054E080916C00853F39F480916D003E
:100080008F5F80936D0010926C0080916D008C33B7
:1000900010F010926D0090916D00939F812D1124AE
:1000A00086958695869580936B00880F282F220F62
:1000B000220F820F981B90936A0082B78F3741F40A
:1000C00048BBE0916B00F0E0E05AFF4F808182BBBB
:1000D00082B78F3F79F658BBE0916A00F0E0E05AB2
:1000E000FF4F808182BB80916C008F5F80936C009A
:0800F00012BEC0CFF894FFCF4F
:0A00F8003F065B4F666D7D07FF6F4A
:00000001FF
