S00F000063757272656E742E7372656312
S113000012C021C020C01FC01EC01DC01CC01BC008
S11300101AC03FC018C017C016C015C014C013C002
S113002012C011C010C011241FBECFE5D4E0DEBF42
S1130030CDBF20E0A0E6B0E001C01D92A436B20717
S1130040E1F702D0D8C1DCCF84B38D6384BB81B324
S11300508F6081BBB99A85E083BF81E089BF12BEFE
S113006080E88FBF83EE86B981E487B988B318BA74
S1130070A89A82B38F6082BB85B38C6385BB85B33A
S113008015BAC19A82B38F6082BB85B38C6385BB7A
S1130090EDCF1F920F920FB60F9211242F933F931F
S11300A04F935F936F937F938F939F93AF93BF937C
S11300B0EF93FF9384B195B16FEF73E088D1CB01D7
S11300C0880F991F880F991F680F791F80E090E0AF
S11300D0F0D02CEB34E743E95DE31ED028E539E3A7
S11300E044EB5DE37ED06093600070936100809385
S11300F0620090936300FF91EF91BF91AF919F9144
S11301008F917F916F915F914F913F912F910F90BC
S11301100FBE0F901F9018955058BB27AA270ED0DA
S11301201CC10DD130F012D120F031F49F3F11F4F5
S11301301EF402C10EF4E095E7FBF8C0E92F1ED1CE
S113014080F3BA17620773078407950718F071F4F0
S11301509EF536C10EF4E0950B2EBA2FA02D0B019F
S1130160B90190010C01CA01A0011124FF27591BF8
S113017099F0593F50F4503E68F11A16F040A22FFE
S1130180232F342F4427585FF3CF4695379527956F
S1130190A795F0405395C9F77EF41F16BA0B620B6E
S11301A0730B840BBAF09150A1F0FF0FBB1F661FB5
S11301B0771F881FC2F70EC0BA0F621F731F841FF8
S11301C048F4879577956795B795F7959E3F08F01E
S11301D0B3CF9395880F08F09927EE0F97958795DD
S11301E008950CD0BAC0B2D040F0A9D030F021F4B8
S11301F05F3F19F09BC05111E4C09EC0BFD098F37B
S11302009923C9F35523B1F3951B550BBB27AA2793
S113021062177307840738F09F5F5F4F220F331F05
S1130220441FAA1FA9F333D00E2E3AF0E0E830D0D1
S113023091505040E695001CCAF729D0FE2F27D0D4
S1130240660F771F881FBB1F261737074807AB07A2
S1130250B0E809F0BB0B802DBF01FF2793585F4F17
S11302602AF09E3F510568F061C0ABC05F3FECF3DC
S1130270983EDCF3869577956795B795F7959F5FDC
S1130280C9F7880F911D9695879597F90895E1E030
S1130290660F771F881FBB1F621773078407BA078F
S11302A020F0621B730B840BBA0BEE1F88F7E095EA
S11302B00895E89409C097FB3EF490958095709555
S11302C061957F4F8F4F9F4F9923A9F0F92F96E99E
S11302D0BB279395F695879577956795B795F11113
S11302E0F8CFFAF4BB0F11F460FF1BC06F5F7F4FB0
S11302F08F4F9F4F16C0882311F096E911C07723C2
S113030021F09EE8872F762F05C0662371F096E8CA
S1130310862F70E060E02AF09A95660F771F881F99
S1130320DAF7880F9695879597F9089597F99F6757
S113033080E870E060E008959FEF80EC0895002469
S11303400A941616170618060906089500240A9436
S113035012161306140605060895092E0394000CBC
S113036011F4882352F0BB0F40F4BF2B11F460FF4B
S113037004C06F5F7F4F8F4F9F4F089557FD905874
S1130380440F551F59F05F3F71F04795880F97FB55
S1130390991F61F09F3F79F087950895121613060F
S11303A01406551FF2CF4695F1DF08C0161617063E
S11303B01806991FF1CF8695710561050894089573
S11303C0E894BB2766277727CB0197F90895AA1BE2
S11303D0BB1B51E107C0AA1FBB1FA617B70710F02C
S11303E0A61BB70B881F991F5A95A9F7809590955E
S10D03F0BC01CD010895F894FFCF7D
S9030000FC
