S00F0000636F6D323232322E737265630E
S113000012C02CC02BC03DC029C028C028C026C0A7
S113001025C024C023C022C021C020C01FC01EC0D0
S11300201DC01CC01BC011241FBECFE5D4E0DEBF21
S1130030CDBF10E0A0E6B0E0EEE7F5E002C0059029
S11300400D92A636B107D9F720E0A6E6B0E001C0CC
S11300501D92A736B207E1F755D08FC2D1CF1F92B8
S11300600F920FB60F9211248F939F9398B382E04F
S1130070892788BB9F918F910F900FBE0F901F907F
S113008018951F920F920FB60F9211248F939F937E
S113009098B384E0892788BB9F918F910F900FBEFE
S11300A00F901F9018958091640090916500869739
S11300B05CF48DE085BD81E08093660080916400EE
S11300C09091650086972CF08CE085BD82E080934A
S11300D0660080916400909165008B3491052CF04A
S11300E08BE085BD84E080936600809164009091EC
S11300F065008C3291402CF08AE085BD80E18093CC
S11301006600089587B38E6087BB8FB780688FBF02
S1130110CADF1FBC8AE08EBD20916000309161006F
S1130120409162005091630060E07FE482E198E4D2
S11301309FD06B017C0160916400709165008827F9
S113014077FD8095982F2AD19B01AC01C701B60198
S11301508FD0F6D07BBD6ABD60916400709165005C
S1130160882777FD8095982F19D19B01AC0160E019
S11301707CE782E995E47CD06B017C0160916600A8
S113018070E080E090E00AD19B01AC01C701B601A8
S113019091D120E030E040E85FE305D0D1D063BDE9
S11301A080E989BFFFCF5058BB27AA270ED048C18A
S11301B039D130F03ED120F031F49F3F11F41EF4D8
S11301C02EC10EF4E095E7FB24C1E92F4AD180F358
S11301D0BA17620773078407950718F071F49EF540
S11301E062C10EF4E0950B2EBA2FA02D0B01B901BC
S11301F090010C01CA01A0011124FF27591B99F099
S1130200593F50F4503E68F11A16F040A22F232FA4
S1130210342F4427585FF3CF469537952795A795F4
S1130220F0405395C9F77EF41F16BA0B620B730B9B
S1130230840BBAF09150A1F0FF0FBB1F661F771F0C
S1130240881FC2F70EC0BA0F621F731F841F48F4C1
S1130250879577956795B795F7959E3F08F0B3CF47
S11302609395880F08F09927EE0F97958795089531
S11302700CD0E6C0DED040F0D5D030F021F45F3FA2
S113028019F0C7C0511110C1CAC0EBD098F399231B
S1130290C9F35523B1F3951B550BBB27AA27621746
S11302A07307840738F09F5F5F4F220F331F441F8B
S11302B0AA1FA9F333D00E2E3AF0E0E830D09150C3
S11302C05040E695001CCAF729D0FE2F27D0660FB0
S11302D0771F881FBB1F261737074807AB07B0E8EF
S11302E009F0BB0B802DBF01FF2793585F4F2AF005
S11302F09E3F510568F08DC0D7C05F3FECF3983E38
S1130300DCF3869577956795B795F7959F5FC9F761
S1130310880F911D9695879597F90895E1E0660FEA
S1130320771F881FBB1F621773078407BA0720F063
S1130330621B730B840BBA0BEE1F88F7E0950895CC
S113034098D088F09F5790F0B92F9927B751A0F013
S1130350D1F0660F771F881F991F1AF0BA95C9F755
S113036012C0B13081F09FD0B1E008959CC0672FD6
S1130370782F8827B85F39F0B93FCCF38695779505
S11303806795B395D9F73EF49095809570956195EE
S11303907F4F8F4F9F4F0895E89409C097FB3EF419
S11303A090958095709561957F4F8F4F9F4F9923BE
S11303B0A9F0F92F96E9BB279395F695879577953C
S11303C06795B795F111F8CFFAF4BB0F11F460FFFC
S11303D01BC06F5F7F4F8F4F9F4F16C0882311F054
S11303E096E911C0772321F09EE8872F762F05C068
S11303F0662371F096E8862F70E060E02AF09A9503
S1130400660F771F881FDAF7880F9695879597F9F7
S1130410089597F99F6780E870E060E008959FEF82
S113042080EC089500240A94161617061806090687
S1130430089500240A941216130614060506089556
S1130440092E0394000C11F4882352F0BB0F40F4DE
S1130450BF2B11F460FF04C06F5F7F4F8F4F9F4F1E
S1130460089557FD9058440F551F59F05F3F71F0A0
S11304704795880F97FB991F61F09F3F79F0879507
S11304800895121613061406551FF2CF4695F1DF90
S113049008C0161617061806991FF1CF8695710520
S11304A0610508940895E894BB2766277727CB0154
S11304B097F908950BD0C4CFB5DF28F0BADF18F050
S11304C0952309F0A6CFABCF1124EECFCADFA0F35A
S11304D0959FD1F3950F50E0551F629FF001729FD5
S11304E0BB27F00DB11D639FAA27F00DB11DAA1FF4
S11304F0649F6627B00DA11D661F829F2227B00D41
S1130500A11D621F739FB00DA11D621F839FA00DCB
S1130510611D221F749F3327A00D611D231F849F1B
S1130520600D211D822F762F6A2F11249F57504072
S11305308AF0E1F088234AF0EE0FFF1FBB1F661F0D
S1130540771F881F91505040A9F79E3F510570F0C6
S113055060CFAACF5F3FECF3983EDCF386957795A6
S11305606795B795F795E7959F5FC1F7FE2B880FC1
S1110570911D9695879597F90895F894FFCFFD
S109057E0AD7A33D1E0094
S9030000FC
